{
  "_format": "hh-sol-artifact-1",
  "contractName": "HelloNFT",
  "sourceName": "contracts/HelloNFT.sol",
  "abi": [
    {
      "inputs": [],
      "stateMutability": "nonpayable",
      "type": "constructor"
    },
    {
      "anonymous": false,
      "inputs": [
        {
          "indexed": true,
          "internalType": "address",
          "name": "owner",
          "type": "address"
        },
        {
          "indexed": true,
          "internalType": "address",
          "name": "approved",
          "type": "address"
        },
        {
          "indexed": true,
          "internalType": "uint256",
          "name": "tokenId",
          "type": "uint256"
        }
      ],
      "name": "Approval",
      "type": "event"
    },
    {
      "anonymous": false,
      "inputs": [
        {
          "indexed": true,
          "internalType": "address",
          "name": "owner",
          "type": "address"
        },
        {
          "indexed": true,
          "internalType": "address",
          "name": "operator",
          "type": "address"
        },
        {
          "indexed": false,
          "internalType": "bool",
          "name": "approved",
          "type": "bool"
        }
      ],
      "name": "ApprovalForAll",
      "type": "event"
    },
    {
      "anonymous": false,
      "inputs": [
        {
          "indexed": false,
          "internalType": "uint256",
          "name": "_fromTokenId",
          "type": "uint256"
        },
        {
          "indexed": false,
          "internalType": "uint256",
          "name": "_toTokenId",
          "type": "uint256"
        }
      ],
      "name": "BatchMetadataUpdate",
      "type": "event"
    },
    {
      "anonymous": false,
      "inputs": [
        {
          "indexed": false,
          "internalType": "uint256",
          "name": "_tokenId",
          "type": "uint256"
        }
      ],
      "name": "MetadataUpdate",
      "type": "event"
    },
    {
      "anonymous": false,
      "inputs": [
        {
          "indexed": true,
          "internalType": "address",
          "name": "previousOwner",
          "type": "address"
        },
        {
          "indexed": true,
          "internalType": "address",
          "name": "newOwner",
          "type": "address"
        }
      ],
      "name": "OwnershipTransferred",
      "type": "event"
    },
    {
      "anonymous": false,
      "inputs": [
        {
          "indexed": true,
          "internalType": "address",
          "name": "from",
          "type": "address"
        },
        {
          "indexed": true,
          "internalType": "address",
          "name": "to",
          "type": "address"
        },
        {
          "indexed": true,
          "internalType": "uint256",
          "name": "tokenId",
          "type": "uint256"
        }
      ],
      "name": "Transfer",
      "type": "event"
    },
    {
      "inputs": [
        {
          "internalType": "address",
          "name": "to",
          "type": "address"
        },
        {
          "internalType": "uint256",
          "name": "tokenId",
          "type": "uint256"
        }
      ],
      "name": "approve",
      "outputs": [],
      "stateMutability": "nonpayable",
      "type": "function"
    },
    {
      "inputs": [
        {
          "internalType": "address",
          "name": "owner",
          "type": "address"
        }
      ],
      "name": "balanceOf",
      "outputs": [
        {
          "internalType": "uint256",
          "name": "",
          "type": "uint256"
        }
      ],
      "stateMutability": "view",
      "type": "function"
    },
    {
      "inputs": [
        {
          "internalType": "uint256",
          "name": "tokenId",
          "type": "uint256"
        }
      ],
      "name": "getApproved",
      "outputs": [
        {
          "internalType": "address",
          "name": "",
          "type": "address"
        }
      ],
      "stateMutability": "view",
      "type": "function"
    },
    {
      "inputs": [
        {
          "internalType": "address",
          "name": "owner",
          "type": "address"
        },
        {
          "internalType": "address",
          "name": "operator",
          "type": "address"
        }
      ],
      "name": "isApprovedForAll",
      "outputs": [
        {
          "internalType": "bool",
          "name": "",
          "type": "bool"
        }
      ],
      "stateMutability": "view",
      "type": "function"
    },
    {
      "inputs": [
        {
          "internalType": "address",
          "name": "to",
          "type": "address"
        },
        {
          "internalType": "string",
          "name": "_tokenURI",
          "type": "string"
        }
      ],
      "name": "mintNFT",
      "outputs": [
        {
          "internalType": "uint256",
          "name": "",
          "type": "uint256"
        }
      ],
      "stateMutability": "nonpayable",
      "type": "function"
    },
    {
      "inputs": [],
      "name": "name",
      "outputs": [
        {
          "internalType": "string",
          "name": "",
          "type": "string"
        }
      ],
      "stateMutability": "view",
      "type": "function"
    },
    {
      "inputs": [],
      "name": "owner",
      "outputs": [
        {
          "internalType": "address",
          "name": "",
          "type": "address"
        }
      ],
      "stateMutability": "view",
      "type": "function"
    },
    {
      "inputs": [
        {
          "internalType": "uint256",
          "name": "tokenId",
          "type": "uint256"
        }
      ],
      "name": "ownerOf",
      "outputs": [
        {
          "internalType": "address",
          "name": "",
          "type": "address"
        }
      ],
      "stateMutability": "view",
      "type": "function"
    },
    {
      "inputs": [],
      "name": "renounceOwnership",
      "outputs": [],
      "stateMutability": "nonpayable",
      "type": "function"
    },
    {
      "inputs": [
        {
          "internalType": "address",
          "name": "from",
          "type": "address"
        },
        {
          "internalType": "address",
          "name": "to",
          "type": "address"
        },
        {
          "internalType": "uint256",
          "name": "tokenId",
          "type": "uint256"
        }
      ],
      "name": "safeTransferFrom",
      "outputs": [],
      "stateMutability": "nonpayable",
      "type": "function"
    },
    {
      "inputs": [
        {
          "internalType": "address",
          "name": "from",
          "type": "address"
        },
        {
          "internalType": "address",
          "name": "to",
          "type": "address"
        },
        {
          "internalType": "uint256",
          "name": "tokenId",
          "type": "uint256"
        },
        {
          "internalType": "bytes",
          "name": "data",
          "type": "bytes"
        }
      ],
      "name": "safeTransferFrom",
      "outputs": [],
      "stateMutability": "nonpayable",
      "type": "function"
    },
    {
      "inputs": [
        {
          "internalType": "address",
          "name": "operator",
          "type": "address"
        },
        {
          "internalType": "bool",
          "name": "approved",
          "type": "bool"
        }
      ],
      "name": "setApprovalForAll",
      "outputs": [],
      "stateMutability": "nonpayable",
      "type": "function"
    },
    {
      "inputs": [
        {
          "internalType": "bytes4",
          "name": "interfaceId",
          "type": "bytes4"
        }
      ],
      "name": "supportsInterface",
      "outputs": [
        {
          "internalType": "bool",
          "name": "",
          "type": "bool"
        }
      ],
      "stateMutability": "view",
      "type": "function"
    },
    {
      "inputs": [],
      "name": "symbol",
      "outputs": [
        {
          "internalType": "string",
          "name": "",
          "type": "string"
        }
      ],
      "stateMutability": "view",
      "type": "function"
    },
    {
      "inputs": [
        {
          "internalType": "uint256",
          "name": "index",
          "type": "uint256"
        }
      ],
      "name": "tokenByIndex",
      "outputs": [
        {
          "internalType": "uint256",
          "name": "",
          "type": "uint256"
        }
      ],
      "stateMutability": "view",
      "type": "function"
    },
    {
      "inputs": [],
      "name": "tokenCounter",
      "outputs": [
        {
          "internalType": "uint256",
          "name": "",
          "type": "uint256"
        }
      ],
      "stateMutability": "view",
      "type": "function"
    },
    {
      "inputs": [
        {
          "internalType": "address",
          "name": "owner",
          "type": "address"
        },
        {
          "internalType": "uint256",
          "name": "index",
          "type": "uint256"
        }
      ],
      "name": "tokenOfOwnerByIndex",
      "outputs": [
        {
          "internalType": "uint256",
          "name": "",
          "type": "uint256"
        }
      ],
      "stateMutability": "view",
      "type": "function"
    },
    {
      "inputs": [
        {
          "internalType": "uint256",
          "name": "tokenId",
          "type": "uint256"
        }
      ],
      "name": "tokenURI",
      "outputs": [
        {
          "internalType": "string",
          "name": "",
          "type": "string"
        }
      ],
      "stateMutability": "view",
      "type": "function"
    },
    {
      "inputs": [],
      "name": "totalSupply",
      "outputs": [
        {
          "internalType": "uint256",
          "name": "",
          "type": "uint256"
        }
      ],
      "stateMutability": "view",
      "type": "function"
    },
    {
      "inputs": [
        {
          "internalType": "address",
          "name": "from",
          "type": "address"
        },
        {
          "internalType": "address",
          "name": "to",
          "type": "address"
        },
        {
          "internalType": "uint256",
          "name": "tokenId",
          "type": "uint256"
        }
      ],
      "name": "transferFrom",
      "outputs": [],
      "stateMutability": "nonpayable",
      "type": "function"
    },
    {
      "inputs": [
        {
          "internalType": "address",
          "name": "newOwner",
          "type": "address"
        }
      ],
      "name": "transferOwnership",
      "outputs": [],
      "stateMutability": "nonpayable",
      "type": "function"
    }
  ],
  "bytecode": "0x60806040523480156200001157600080fd5b506040518060400160405280600881526020017f48656c6c6f4e46540000000000000000000000000000000000000000000000008152506040518060400160405280600481526020017f484e46540000000000000000000000000000000000000000000000000000000081525081600090816200008f91906200041a565b508060019081620000a191906200041a565b505050620000c4620000b8620000d260201b60201c565b620000da60201b60201c565b6000600c8190555062000501565b600033905090565b6000600b60009054906101000a900473ffffffffffffffffffffffffffffffffffffffff16905081600b60006101000a81548173ffffffffffffffffffffffffffffffffffffffff021916908373ffffffffffffffffffffffffffffffffffffffff1602179055508173ffffffffffffffffffffffffffffffffffffffff168173ffffffffffffffffffffffffffffffffffffffff167f8be0079c531659141344cd1fd0a4f28419497f9722a3daafe3b4186f6b6457e060405160405180910390a35050565b600081519050919050565b7f4e487b7100000000000000000000000000000000000000000000000000000000600052604160045260246000fd5b7f4e487b7100000000000000000000000000000000000000000000000000000000600052602260045260246000fd5b600060028204905060018216806200022257607f821691505b602082108103620002385762000237620001da565b5b50919050565b60008190508160005260206000209050919050565b60006020601f8301049050919050565b600082821b905092915050565b600060088302620002a27fffffffffffffffffffffffffffffffffffffffffffffffffffffffffffffffff8262000263565b620002ae868362000263565b95508019841693508086168417925050509392505050565b6000819050919050565b6000819050919050565b6000620002fb620002f5620002ef84620002c6565b620002d0565b620002c6565b9050919050565b6000819050919050565b6200031783620002da565b6200032f620003268262000302565b84845462000270565b825550505050565b600090565b6200034662000337565b620003538184846200030c565b505050565b5b818110156200037b576200036f6000826200033c565b60018101905062000359565b5050565b601f821115620003ca5762000394816200023e565b6200039f8462000253565b81016020851015620003af578190505b620003c7620003be8562000253565b83018262000358565b50505b505050565b600082821c905092915050565b6000620003ef60001984600802620003cf565b1980831691505092915050565b60006200040a8383620003dc565b9150826002028217905092915050565b6200042582620001a0565b67ffffffffffffffff811115620004415762000440620001ab565b5b6200044d825462000209565b6200045a8282856200037f565b600060209050601f8311600181146200049257600084156200047d578287015190505b620004898582620003fc565b865550620004f9565b601f198416620004a2866200023e565b60005b82811015620004cc57848901518255600182019150602085019450602081019050620004a5565b86831015620004ec5784890151620004e8601f891682620003dc565b8355505b6001600288020188555050505b505050505050565b61385e80620005116000396000f3fe608060405234801561001057600080fd5b50600436106101375760003560e01c806370a08231116100b8578063b88d4fde1161007c578063b88d4fde1461034e578063c87b56dd1461036a578063d082e3811461039a578063e985e9c5146103b8578063eacabe14146103e8578063f2fde38b1461041857610137565b806370a08231146102bc578063715018a6146102ec5780638da5cb5b146102f657806395d89b4114610314578063a22cb4651461033257610137565b806323b872dd116100ff57806323b872dd146101f45780632f745c591461021057806342842e0e146102405780634f6ccce71461025c5780636352211e1461028c57610137565b806301ffc9a71461013c57806306fdde031461016c578063081812fc1461018a578063095ea7b3146101ba57806318160ddd146101d6575b600080fd5b610156600480360381019061015191906123a4565b610434565b60405161016391906123ec565b60405180910390f35b610174610446565b6040516101819190612497565b60405180910390f35b6101a4600480360381019061019f91906124ef565b6104d8565b6040516101b1919061255d565b60405180910390f35b6101d460048036038101906101cf91906125a4565b61051e565b005b6101de610635565b6040516101eb91906125f3565b60405180910390f35b61020e6004803603810190610209919061260e565b610642565b005b61022a600480360381019061022591906125a4565b6106a2565b60405161023791906125f3565b60405180910390f35b61025a6004803603810190610255919061260e565b610747565b005b610276600480360381019061027191906124ef565b610767565b60405161028391906125f3565b60405180910390f35b6102a660048036038101906102a191906124ef565b6107d8565b6040516102b3919061255d565b60405180910390f35b6102d660048036038101906102d19190612661565b61085e565b6040516102e391906125f3565b60405180910390f35b6102f4610915565b005b6102fe610929565b60405161030b919061255d565b60405180910390f35b61031c610953565b6040516103299190612497565b60405180910390f35b61034c600480360381019061034791906126ba565b6109e5565b005b6103686004803603810190610363919061282f565b6109fb565b005b610384600480360381019061037f91906124ef565b610a5d565b6040516103919190612497565b60405180910390f35b6103a2610a6f565b6040516103af91906125f3565b60405180910390f35b6103d260048036038101906103cd91906128b2565b610a75565b6040516103df91906123ec565b60405180910390f35b61040260048036038101906103fd9190612993565b610b09565b60405161040f91906125f3565b60405180910390f35b610432600480360381019061042d9190612661565b610b52565b005b600061043f82610bd5565b9050919050565b60606000805461045590612a1e565b80601f016020809104026020016040519081016040528092919081815260200182805461048190612a1e565b80156104ce5780601f106104a3576101008083540402835291602001916104ce565b820191906000526020600020905b8154815290600101906020018083116104b157829003601f168201915b5050505050905090565b60006104e382610c36565b6004600083815260200190815260200160002060009054906101000a900473ffffffffffffffffffffffffffffffffffffffff169050919050565b6000610529826107d8565b90508073ffffffffffffffffffffffffffffffffffffffff168373ffffffffffffffffffffffffffffffffffffffff1603610599576040517f08c379a000000000000000000000000000000000000000000000000000000000815260040161059090612ac1565b60405180910390fd5b8073ffffffffffffffffffffffffffffffffffffffff166105b8610c81565b73ffffffffffffffffffffffffffffffffffffffff1614806105e757506105e6816105e1610c81565b610a75565b5b610626576040517f08c379a000000000000000000000000000000000000000000000000000000000815260040161061d90612b53565b60405180910390fd5b6106308383610c89565b505050565b6000600880549050905090565b61065361064d610c81565b82610d42565b610692576040517f08c379a000000000000000000000000000000000000000000000000000000000815260040161068990612be5565b60405180910390fd5b61069d838383610dd7565b505050565b60006106ad8361085e565b82106106ee576040517f08c379a00000000000000000000000000000000000000000000000000000000081526004016106e590612c77565b60405180910390fd5b600660008473ffffffffffffffffffffffffffffffffffffffff1673ffffffffffffffffffffffffffffffffffffffff168152602001908152602001600020600083815260200190815260200160002054905092915050565b610762838383604051806020016040528060008152506109fb565b505050565b6000610771610635565b82106107b2576040517f08c379a00000000000000000000000000000000000000000000000000000000081526004016107a990612d09565b60405180910390fd5b600882815481106107c6576107c5612d29565b5b90600052602060002001549050919050565b6000806107e4836110d0565b9050600073ffffffffffffffffffffffffffffffffffffffff168173ffffffffffffffffffffffffffffffffffffffff1603610855576040517f08c379a000000000000000000000000000000000000000000000000000000000815260040161084c90612da4565b60405180910390fd5b80915050919050565b60008073ffffffffffffffffffffffffffffffffffffffff168273ffffffffffffffffffffffffffffffffffffffff16036108ce576040517f08c379a00000000000000000000000000000000000000000000000000000000081526004016108c590612e36565b60405180910390fd5b600360008373ffffffffffffffffffffffffffffffffffffffff1673ffffffffffffffffffffffffffffffffffffffff168152602001908152602001600020549050919050565b61091d61110d565b610927600061118b565b565b6000600b60009054906101000a900473ffffffffffffffffffffffffffffffffffffffff16905090565b60606001805461096290612a1e565b80601f016020809104026020016040519081016040528092919081815260200182805461098e90612a1e565b80156109db5780601f106109b0576101008083540402835291602001916109db565b820191906000526020600020905b8154815290600101906020018083116109be57829003601f168201915b5050505050905090565b6109f76109f0610c81565b8383611251565b5050565b610a0c610a06610c81565b83610d42565b610a4b576040517f08c379a0000000000000000000000000000000000000000000000000000000008152600401610a4290612be5565b60405180910390fd5b610a57848484846113bd565b50505050565b6060610a6882611419565b9050919050565b600c5481565b6000600560008473ffffffffffffffffffffffffffffffffffffffff1673ffffffffffffffffffffffffffffffffffffffff16815260200190815260200160002060008373ffffffffffffffffffffffffffffffffffffffff1673ffffffffffffffffffffffffffffffffffffffff16815260200190815260200160002060009054906101000a900460ff16905092915050565b6000610b1361110d565b6000600c549050610b24848261152b565b610b2e8184611549565b6001600c6000828254610b419190612e85565b925050819055508091505092915050565b610b5a61110d565b600073ffffffffffffffffffffffffffffffffffffffff168173ffffffffffffffffffffffffffffffffffffffff1603610bc9576040517f08c379a0000000000000000000000000000000000000000000000000000000008152600401610bc090612f2b565b60405180910390fd5b610bd28161118b565b50565b6000634906490660e01b7bffffffffffffffffffffffffffffffffffffffffffffffffffffffff1916827bffffffffffffffffffffffffffffffffffffffffffffffffffffffff19161480610c2f5750610c2e826115ed565b5b9050919050565b610c3f81611667565b610c7e576040517f08c379a0000000000000000000000000000000000000000000000000000000008152600401610c7590612da4565b60405180910390fd5b50565b600033905090565b816004600083815260200190815260200160002060006101000a81548173ffffffffffffffffffffffffffffffffffffffff021916908373ffffffffffffffffffffffffffffffffffffffff160217905550808273ffffffffffffffffffffffffffffffffffffffff16610cfc836107d8565b73ffffffffffffffffffffffffffffffffffffffff167f8c5be1e5ebec7d5bd14f71427d1e84f3dd0314c0f7b2291e5b200ac8c7c3b92560405160405180910390a45050565b600080610d4e836107d8565b90508073ffffffffffffffffffffffffffffffffffffffff168473ffffffffffffffffffffffffffffffffffffffff161480610d905750610d8f8185610a75565b5b80610dce57508373ffffffffffffffffffffffffffffffffffffffff16610db6846104d8565b73ffffffffffffffffffffffffffffffffffffffff16145b91505092915050565b8273ffffffffffffffffffffffffffffffffffffffff16610df7826107d8565b73ffffffffffffffffffffffffffffffffffffffff1614610e4d576040517f08c379a0000000000000000000000000000000000000000000000000000000008152600401610e4490612fbd565b60405180910390fd5b600073ffffffffffffffffffffffffffffffffffffffff168273ffffffffffffffffffffffffffffffffffffffff1603610ebc576040517f08c379a0000000000000000000000000000000000000000000000000000000008152600401610eb39061304f565b60405180910390fd5b610ec983838360016116a8565b8273ffffffffffffffffffffffffffffffffffffffff16610ee9826107d8565b73ffffffffffffffffffffffffffffffffffffffff1614610f3f576040517f08c379a0000000000000000000000000000000000000000000000000000000008152600401610f3690612fbd565b60405180910390fd5b6004600082815260200190815260200160002060006101000a81549073ffffffffffffffffffffffffffffffffffffffff02191690556001600360008573ffffffffffffffffffffffffffffffffffffffff1673ffffffffffffffffffffffffffffffffffffffff168152602001908152602001600020600082825403925050819055506001600360008473ffffffffffffffffffffffffffffffffffffffff1673ffffffffffffffffffffffffffffffffffffffff16815260200190815260200160002060008282540192505081905550816002600083815260200190815260200160002060006101000a81548173ffffffffffffffffffffffffffffffffffffffff021916908373ffffffffffffffffffffffffffffffffffffffff160217905550808273ffffffffffffffffffffffffffffffffffffffff168473ffffffffffffffffffffffffffffffffffffffff167fddf252ad1be2c89b69c2b068fc378daa952ba7f163c4a11628f55a4df523b3ef60405160405180910390a46110cb83838360016116ba565b505050565b60006002600083815260200190815260200160002060009054906101000a900473ffffffffffffffffffffffffffffffffffffffff169050919050565b611115610c81565b73ffffffffffffffffffffffffffffffffffffffff16611133610929565b73ffffffffffffffffffffffffffffffffffffffff1614611189576040517f08c379a0000000000000000000000000000000000000000000000000000000008152600401611180906130bb565b60405180910390fd5b565b6000600b60009054906101000a900473ffffffffffffffffffffffffffffffffffffffff16905081600b60006101000a81548173ffffffffffffffffffffffffffffffffffffffff021916908373ffffffffffffffffffffffffffffffffffffffff1602179055508173ffffffffffffffffffffffffffffffffffffffff168173ffffffffffffffffffffffffffffffffffffffff167f8be0079c531659141344cd1fd0a4f28419497f9722a3daafe3b4186f6b6457e060405160405180910390a35050565b8173ffffffffffffffffffffffffffffffffffffffff168373ffffffffffffffffffffffffffffffffffffffff16036112bf576040517f08c379a00000000000000000000000000000000000000000000000000000000081526004016112b690613127565b60405180910390fd5b80600560008573ffffffffffffffffffffffffffffffffffffffff1673ffffffffffffffffffffffffffffffffffffffff16815260200190815260200160002060008473ffffffffffffffffffffffffffffffffffffffff1673ffffffffffffffffffffffffffffffffffffffff16815260200190815260200160002060006101000a81548160ff0219169083151502179055508173ffffffffffffffffffffffffffffffffffffffff168373ffffffffffffffffffffffffffffffffffffffff167f17307eab39ab6107e8899845ad3d59bd9653f200f220920489ca2b5937696c31836040516113b091906123ec565b60405180910390a3505050565b6113c8848484610dd7565b6113d4848484846116c0565b611413576040517f08c379a000000000000000000000000000000000000000000000000000000000815260040161140a906131b9565b60405180910390fd5b50505050565b606061142482610c36565b6000600a6000848152602001908152602001600020805461144490612a1e565b80601f016020809104026020016040519081016040528092919081815260200182805461147090612a1e565b80156114bd5780601f10611492576101008083540402835291602001916114bd565b820191906000526020600020905b8154815290600101906020018083116114a057829003601f168201915b5050505050905060006114ce611847565b905060008151036114e3578192505050611526565b600082511115611518578082604051602001611500929190613215565b60405160208183030381529060405292505050611526565b6115218461185e565b925050505b919050565b6115458282604051806020016040528060008152506118c6565b5050565b61155282611667565b611591576040517f08c379a0000000000000000000000000000000000000000000000000000000008152600401611588906132ab565b60405180910390fd5b80600a600084815260200190815260200160002090816115b19190613477565b507ff8e1a15aba9398e019f0b49df1a4fde98ee17ae345cb5f6b5e2c27f5033e8ce7826040516115e191906125f3565b60405180910390a15050565b60007f780e9d63000000000000000000000000000000000000000000000000000000007bffffffffffffffffffffffffffffffffffffffffffffffffffffffff1916827bffffffffffffffffffffffffffffffffffffffffffffffffffffffff19161480611660575061165f82611921565b5b9050919050565b60008073ffffffffffffffffffffffffffffffffffffffff16611689836110d0565b73ffffffffffffffffffffffffffffffffffffffff1614159050919050565b6116b484848484611a03565b50505050565b50505050565b60006116e18473ffffffffffffffffffffffffffffffffffffffff16611b61565b1561183a578373ffffffffffffffffffffffffffffffffffffffff1663150b7a0261170a610c81565b8786866040518563ffffffff1660e01b815260040161172c949392919061359e565b6020604051808303816000875af192505050801561176857506040513d601f19601f8201168201806040525081019061176591906135ff565b60015b6117ea573d8060008114611798576040519150601f19603f3d011682016040523d82523d6000602084013e61179d565b606091505b5060008151036117e2576040517f08c379a00000000000000000000000000000000000000000000000000000000081526004016117d9906131b9565b60405180910390fd5b805181602001fd5b63150b7a0260e01b7bffffffffffffffffffffffffffffffffffffffffffffffffffffffff1916817bffffffffffffffffffffffffffffffffffffffffffffffffffffffff19161491505061183f565b600190505b949350505050565b606060405180602001604052806000815250905090565b606061186982610c36565b6000611873611847565b9050600081511161189357604051806020016040528060008152506118be565b8061189d84611b84565b6040516020016118ae929190613215565b6040516020818303038152906040525b915050919050565b6118d08383611c52565b6118dd60008484846116c0565b61191c576040517f08c379a0000000000000000000000000000000000000000000000000000000008152600401611913906131b9565b60405180910390fd5b505050565b60007f80ac58cd000000000000000000000000000000000000000000000000000000007bffffffffffffffffffffffffffffffffffffffffffffffffffffffff1916827bffffffffffffffffffffffffffffffffffffffffffffffffffffffff191614806119ec57507f5b5e139f000000000000000000000000000000000000000000000000000000007bffffffffffffffffffffffffffffffffffffffffffffffffffffffff1916827bffffffffffffffffffffffffffffffffffffffffffffffffffffffff1916145b806119fc57506119fb82611e6f565b5b9050919050565b611a0f84848484611ed9565b6001811115611a53576040517f08c379a0000000000000000000000000000000000000000000000000000000008152600401611a4a9061369e565b60405180910390fd5b6000829050600073ffffffffffffffffffffffffffffffffffffffff168573ffffffffffffffffffffffffffffffffffffffff1603611a9a57611a9581611edf565b611ad9565b8373ffffffffffffffffffffffffffffffffffffffff168573ffffffffffffffffffffffffffffffffffffffff1614611ad857611ad78582611f28565b5b5b600073ffffffffffffffffffffffffffffffffffffffff168473ffffffffffffffffffffffffffffffffffffffff1603611b1b57611b1681612095565b611b5a565b8473ffffffffffffffffffffffffffffffffffffffff168473ffffffffffffffffffffffffffffffffffffffff1614611b5957611b588482612166565b5b5b5050505050565b6000808273ffffffffffffffffffffffffffffffffffffffff163b119050919050565b606060006001611b93846121e5565b01905060008167ffffffffffffffff811115611bb257611bb1612704565b5b6040519080825280601f01601f191660200182016040528015611be45781602001600182028036833780820191505090505b509050600082602001820190505b600115611c47578080600190039150507f3031323334353637383961626364656600000000000000000000000000000000600a86061a8153600a8581611c3b57611c3a6136be565b5b04945060008503611bf2575b819350505050919050565b600073ffffffffffffffffffffffffffffffffffffffff168273ffffffffffffffffffffffffffffffffffffffff1603611cc1576040517f08c379a0000000000000000000000000000000000000000000000000000000008152600401611cb890613739565b60405180910390fd5b611cca81611667565b15611d0a576040517f08c379a0000000000000000000000000000000000000000000000000000000008152600401611d01906137a5565b60405180910390fd5b611d186000838360016116a8565b611d2181611667565b15611d61576040517f08c379a0000000000000000000000000000000000000000000000000000000008152600401611d58906137a5565b60405180910390fd5b6001600360008473ffffffffffffffffffffffffffffffffffffffff1673ffffffffffffffffffffffffffffffffffffffff16815260200190815260200160002060008282540192505081905550816002600083815260200190815260200160002060006101000a81548173ffffffffffffffffffffffffffffffffffffffff021916908373ffffffffffffffffffffffffffffffffffffffff160217905550808273ffffffffffffffffffffffffffffffffffffffff16600073ffffffffffffffffffffffffffffffffffffffff167fddf252ad1be2c89b69c2b068fc378daa952ba7f163c4a11628f55a4df523b3ef60405160405180910390a4611e6b6000838360016116ba565b5050565b60007f01ffc9a7000000000000000000000000000000000000000000000000000000007bffffffffffffffffffffffffffffffffffffffffffffffffffffffff1916827bffffffffffffffffffffffffffffffffffffffffffffffffffffffff1916149050919050565b50505050565b6008805490506009600083815260200190815260200160002081905550600881908060018154018082558091505060019003906000526020600020016000909190919091505550565b60006001611f358461085e565b611f3f91906137c5565b9050600060076000848152602001908152602001600020549050818114612024576000600660008673ffffffffffffffffffffffffffffffffffffffff1673ffffffffffffffffffffffffffffffffffffffff168152602001908152602001600020600084815260200190815260200160002054905080600660008773ffffffffffffffffffffffffffffffffffffffff1673ffffffffffffffffffffffffffffffffffffffff168152602001908152602001600020600084815260200190815260200160002081905550816007600083815260200190815260200160002081905550505b6007600084815260200190815260200160002060009055600660008573ffffffffffffffffffffffffffffffffffffffff1673ffffffffffffffffffffffffffffffffffffffff16815260200190815260200160002060008381526020019081526020016000206000905550505050565b600060016008805490506120a991906137c5565b90506000600960008481526020019081526020016000205490506000600883815481106120d9576120d8612d29565b5b9060005260206000200154905080600883815481106120fb576120fa612d29565b5b90600052602060002001819055508160096000838152602001908152602001600020819055506009600085815260200190815260200160002060009055600880548061214a576121496137f9565b5b6001900381819060005260206000200160009055905550505050565b60006121718361085e565b905081600660008573ffffffffffffffffffffffffffffffffffffffff1673ffffffffffffffffffffffffffffffffffffffff168152602001908152602001600020600083815260200190815260200160002081905550806007600084815260200190815260200160002081905550505050565b600080600090507a184f03e93ff9f4daa797ed6e38ed64bf6a1f0100000000000000008310612243577a184f03e93ff9f4daa797ed6e38ed64bf6a1f0100000000000000008381612239576122386136be565b5b0492506040810190505b6d04ee2d6d415b85acef81000000008310612280576d04ee2d6d415b85acef81000000008381612276576122756136be565b5b0492506020810190505b662386f26fc1000083106122af57662386f26fc1000083816122a5576122a46136be565b5b0492506010810190505b6305f5e10083106122d8576305f5e10083816122ce576122cd6136be565b5b0492506008810190505b61271083106122fd5761271083816122f3576122f26136be565b5b0492506004810190505b606483106123205760648381612316576123156136be565b5b0492506002810190505b600a831061232f576001810190505b80915050919050565b6000604051905090565b600080fd5b600080fd5b60007fffffffff0000000000000000000000000000000000000000000000000000000082169050919050565b6123818161234c565b811461238c57600080fd5b50565b60008135905061239e81612378565b92915050565b6000602082840312156123ba576123b9612342565b5b60006123c88482850161238f565b91505092915050565b60008115159050919050565b6123e6816123d1565b82525050565b600060208201905061240160008301846123dd565b92915050565b600081519050919050565b600082825260208201905092915050565b60005b83811015612441578082015181840152602081019050612426565b60008484015250505050565b6000601f19601f8301169050919050565b600061246982612407565b6124738185612412565b9350612483818560208601612423565b61248c8161244d565b840191505092915050565b600060208201905081810360008301526124b1818461245e565b905092915050565b6000819050919050565b6124cc816124b9565b81146124d757600080fd5b50565b6000813590506124e9816124c3565b92915050565b60006020828403121561250557612504612342565b5b6000612513848285016124da565b91505092915050565b600073ffffffffffffffffffffffffffffffffffffffff82169050919050565b60006125478261251c565b9050919050565b6125578161253c565b82525050565b6000602082019050612572600083018461254e565b92915050565b6125818161253c565b811461258c57600080fd5b50565b60008135905061259e81612578565b92915050565b600080604083850312156125bb576125ba612342565b5b60006125c98582860161258f565b92505060206125da858286016124da565b9150509250929050565b6125ed816124b9565b82525050565b600060208201905061260860008301846125e4565b92915050565b60008060006060848603121561262757612626612342565b5b60006126358682870161258f565b93505060206126468682870161258f565b9250506040612657868287016124da565b9150509250925092565b60006020828403121561267757612676612342565b5b60006126858482850161258f565b91505092915050565b612697816123d1565b81146126a257600080fd5b50565b6000813590506126b48161268e565b92915050565b600080604083850312156126d1576126d0612342565b5b60006126df8582860161258f565b92505060206126f0858286016126a5565b9150509250929050565b600080fd5b600080fd5b7f4e487b7100000000000000000000000000000000000000000000000000000000600052604160045260246000fd5b61273c8261244d565b810181811067ffffffffffffffff8211171561275b5761275a612704565b5b80604052505050565b600061276e612338565b905061277a8282612733565b919050565b600067ffffffffffffffff82111561279a57612799612704565b5b6127a38261244d565b9050602081019050919050565b82818337600083830152505050565b60006127d26127cd8461277f565b612764565b9050828152602081018484840111156127ee576127ed6126ff565b5b6127f98482856127b0565b509392505050565b600082601f830112612816576128156126fa565b5b81356128268482602086016127bf565b91505092915050565b6000806000806080858703121561284957612848612342565b5b60006128578782880161258f565b94505060206128688782880161258f565b9350506040612879878288016124da565b925050606085013567ffffffffffffffff81111561289a57612899612347565b5b6128a687828801612801565b91505092959194509250565b600080604083850312156128c9576128c8612342565b5b60006128d78582860161258f565b92505060206128e88582860161258f565b9150509250929050565b600067ffffffffffffffff82111561290d5761290c612704565b5b6129168261244d565b9050602081019050919050565b6000612936612931846128f2565b612764565b905082815260208101848484011115612952576129516126ff565b5b61295d8482856127b0565b509392505050565b600082601f83011261297a576129796126fa565b5b813561298a848260208601612923565b91505092915050565b600080604083850312156129aa576129a9612342565b5b60006129b88582860161258f565b925050602083013567ffffffffffffffff8111156129d9576129d8612347565b5b6129e585828601612965565b9150509250929050565b7f4e487b7100000000000000000000000000000000000000000000000000000000600052602260045260246000fd5b60006002820490506001821680612a3657607f821691505b602082108103612a4957612a486129ef565b5b50919050565b7f4552433732313a20617070726f76616c20746f2063757272656e74206f776e6560008201527f7200000000000000000000000000000000000000000000000000000000000000602082015250565b6000612aab602183612412565b9150612ab682612a4f565b604082019050919050565b60006020820190508181036000830152612ada81612a9e565b9050919050565b7f4552433732313a20617070726f76652063616c6c6572206973206e6f7420746f60008201527f6b656e206f776e6572206f7220617070726f76656420666f7220616c6c000000602082015250565b6000612b3d603d83612412565b9150612b4882612ae1565b604082019050919050565b60006020820190508181036000830152612b6c81612b30565b9050919050565b7f4552433732313a2063616c6c6572206973206e6f7420746f6b656e206f776e6560008201527f72206f7220617070726f76656400000000000000000000000000000000000000602082015250565b6000612bcf602d83612412565b9150612bda82612b73565b604082019050919050565b60006020820190508181036000830152612bfe81612bc2565b9050919050565b7f455243373231456e756d657261626c653a206f776e657220696e646578206f7560008201527f74206f6620626f756e6473000000000000000000000000000000000000000000602082015250565b6000612c61602b83612412565b9150612c6c82612c05565b604082019050919050565b60006020820190508181036000830152612c9081612c54565b9050919050565b7f455243373231456e756d657261626c653a20676c6f62616c20696e646578206f60008201527f7574206f6620626f756e64730000000000000000000000000000000000000000602082015250565b6000612cf3602c83612412565b9150612cfe82612c97565b604082019050919050565b60006020820190508181036000830152612d2281612ce6565b9050919050565b7f4e487b7100000000000000000000000000000000000000000000000000000000600052603260045260246000fd5b7f4552433732313a20696e76616c696420746f6b656e2049440000000000000000600082015250565b6000612d8e601883612412565b9150612d9982612d58565b602082019050919050565b60006020820190508181036000830152612dbd81612d81565b9050919050565b7f4552433732313a2061646472657373207a65726f206973206e6f74206120766160008201527f6c6964206f776e65720000000000000000000000000000000000000000000000602082015250565b6000612e20602983612412565b9150612e2b82612dc4565b604082019050919050565b60006020820190508181036000830152612e4f81612e13565b9050919050565b7f4e487b7100000000000000000000000000000000000000000000000000000000600052601160045260246000fd5b6000612e90826124b9565b9150612e9b836124b9565b9250828201905080821115612eb357612eb2612e56565b5b92915050565b7f4f776e61626c653a206e6577206f776e657220697320746865207a65726f206160008201527f6464726573730000000000000000000000000000000000000000000000000000602082015250565b6000612f15602683612412565b9150612f2082612eb9565b604082019050919050565b60006020820190508181036000830152612f4481612f08565b9050919050565b7f4552433732313a207472616e736665722066726f6d20696e636f72726563742060008201527f6f776e6572000000000000000000000000000000000000000000000000000000602082015250565b6000612fa7602583612412565b9150612fb282612f4b565b604082019050919050565b60006020820190508181036000830152612fd681612f9a565b9050919050565b7f4552433732313a207472616e7366657220746f20746865207a65726f2061646460008201527f7265737300000000000000000000000000000000000000000000000000000000602082015250565b6000613039602483612412565b915061304482612fdd565b604082019050919050565b600060208201905081810360008301526130688161302c565b9050919050565b7f4f776e61626c653a2063616c6c6572206973206e6f7420746865206f776e6572600082015250565b60006130a5602083612412565b91506130b08261306f565b602082019050919050565b600060208201905081810360008301526130d481613098565b9050919050565b7f4552433732313a20617070726f766520746f2063616c6c657200000000000000600082015250565b6000613111601983612412565b915061311c826130db565b602082019050919050565b6000602082019050818103600083015261314081613104565b9050919050565b7f4552433732313a207472616e7366657220746f206e6f6e20455243373231526560008201527f63656976657220696d706c656d656e7465720000000000000000000000000000602082015250565b60006131a3603283612412565b91506131ae82613147565b604082019050919050565b600060208201905081810360008301526131d281613196565b9050919050565b600081905092915050565b60006131ef82612407565b6131f981856131d9565b9350613209818560208601612423565b80840191505092915050565b600061322182856131e4565b915061322d82846131e4565b91508190509392505050565b7f45524337323155524953746f726167653a2055524920736574206f66206e6f6e60008201527f6578697374656e7420746f6b656e000000000000000000000000000000000000602082015250565b6000613295602e83612412565b91506132a082613239565b604082019050919050565b600060208201905081810360008301526132c481613288565b9050919050565b60008190508160005260206000209050919050565b60006020601f8301049050919050565b600082821b905092915050565b60006008830261332d7fffffffffffffffffffffffffffffffffffffffffffffffffffffffffffffffff826132f0565b61333786836132f0565b95508019841693508086168417925050509392505050565b6000819050919050565b600061337461336f61336a846124b9565b61334f565b6124b9565b9050919050565b6000819050919050565b61338e83613359565b6133a261339a8261337b565b8484546132fd565b825550505050565b600090565b6133b76133aa565b6133c2818484613385565b505050565b5b818110156133e6576133db6000826133af565b6001810190506133c8565b5050565b601f82111561342b576133fc816132cb565b613405846132e0565b81016020851015613414578190505b613428613420856132e0565b8301826133c7565b50505b505050565b600082821c905092915050565b600061344e60001984600802613430565b1980831691505092915050565b6000613467838361343d565b9150826002028217905092915050565b61348082612407565b67ffffffffffffffff81111561349957613498612704565b5b6134a38254612a1e565b6134ae8282856133ea565b600060209050601f8311600181146134e157600084156134cf578287015190505b6134d9858261345b565b865550613541565b601f1984166134ef866132cb565b60005b82811015613517578489015182556001820191506020850194506020810190506134f2565b868310156135345784890151613530601f89168261343d565b8355505b6001600288020188555050505b505050505050565b600081519050919050565b600082825260208201905092915050565b600061357082613549565b61357a8185613554565b935061358a818560208601612423565b6135938161244d565b840191505092915050565b60006080820190506135b3600083018761254e565b6135c0602083018661254e565b6135cd60408301856125e4565b81810360608301526135df8184613565565b905095945050505050565b6000815190506135f981612378565b92915050565b60006020828403121561361557613614612342565b5b6000613623848285016135ea565b91505092915050565b7f455243373231456e756d657261626c653a20636f6e736563757469766520747260008201527f616e7366657273206e6f7420737570706f727465640000000000000000000000602082015250565b6000613688603583612412565b91506136938261362c565b604082019050919050565b600060208201905081810360008301526136b78161367b565b9050919050565b7f4e487b7100000000000000000000000000000000000000000000000000000000600052601260045260246000fd5b7f4552433732313a206d696e7420746f20746865207a65726f2061646472657373600082015250565b6000613723602083612412565b915061372e826136ed565b602082019050919050565b6000602082019050818103600083015261375281613716565b9050919050565b7f4552433732313a20746f6b656e20616c7265616479206d696e74656400000000600082015250565b600061378f601c83612412565b915061379a82613759565b602082019050919050565b600060208201905081810360008301526137be81613782565b9050919050565b60006137d0826124b9565b91506137db836124b9565b92508282039050818111156137f3576137f2612e56565b5b92915050565b7f4e487b7100000000000000000000000000000000000000000000000000000000600052603160045260246000fdfea26469706673582212206b475d2f48742fb46663a63e7f8f77e762ef8fe84e9edc2f73c1789535c6866f64736f6c63430008110033",
  "linkReferences": {},
  "deployedLinkReferences": {}
}