{
  "_format": "hh-sol-artifact-1",
  "contractName": "HelloNFT",
  "sourceName": "contracts/HelloNFT.sol",
  "abi": [
    {
      "inputs": [],
      "stateMutability": "nonpayable",
      "type": "constructor"
    },
    {
      "anonymous": false,
      "inputs": [
        {
          "indexed": true,
          "internalType": "address",
          "name": "owner",
          "type": "address"
        },
        {
          "indexed": true,
          "internalType": "address",
          "name": "approved",
          "type": "address"
        },
        {
          "indexed": true,
          "internalType": "uint256",
          "name": "tokenId",
          "type": "uint256"
        }
      ],
      "name": "Approval",
      "type": "event"
    },
    {
      "anonymous": false,
      "inputs": [
        {
          "indexed": true,
          "internalType": "address",
          "name": "owner",
          "type": "address"
        },
        {
          "indexed": true,
          "internalType": "address",
          "name": "operator",
          "type": "address"
        },
        {
          "indexed": false,
          "internalType": "bool",
          "name": "approved",
          "type": "bool"
        }
      ],
      "name": "ApprovalForAll",
      "type": "event"
    },
    {
      "anonymous": false,
      "inputs": [
        {
          "indexed": false,
          "internalType": "uint256",
          "name": "_fromTokenId",
          "type": "uint256"
        },
        {
          "indexed": false,
          "internalType": "uint256",
          "name": "_toTokenId",
          "type": "uint256"
        }
      ],
      "name": "BatchMetadataUpdate",
      "type": "event"
    },
    {
      "anonymous": false,
      "inputs": [
        {
          "indexed": false,
          "internalType": "uint256",
          "name": "_tokenId",
          "type": "uint256"
        }
      ],
      "name": "MetadataUpdate",
      "type": "event"
    },
    {
      "anonymous": false,
      "inputs": [
        {
          "indexed": true,
          "internalType": "address",
          "name": "previousOwner",
          "type": "address"
        },
        {
          "indexed": true,
          "internalType": "address",
          "name": "newOwner",
          "type": "address"
        }
      ],
      "name": "OwnershipTransferred",
      "type": "event"
    },
    {
      "anonymous": false,
      "inputs": [
        {
          "indexed": true,
          "internalType": "address",
          "name": "from",
          "type": "address"
        },
        {
          "indexed": true,
          "internalType": "address",
          "name": "to",
          "type": "address"
        },
        {
          "indexed": true,
          "internalType": "uint256",
          "name": "tokenId",
          "type": "uint256"
        }
      ],
      "name": "Transfer",
      "type": "event"
    },
    {
      "inputs": [
        {
          "internalType": "address",
          "name": "to",
          "type": "address"
        },
        {
          "internalType": "uint256",
          "name": "tokenId",
          "type": "uint256"
        }
      ],
      "name": "approve",
      "outputs": [],
      "stateMutability": "nonpayable",
      "type": "function"
    },
    {
      "inputs": [
        {
          "internalType": "address",
          "name": "owner",
          "type": "address"
        }
      ],
      "name": "balanceOf",
      "outputs": [
        {
          "internalType": "uint256",
          "name": "",
          "type": "uint256"
        }
      ],
      "stateMutability": "view",
      "type": "function"
    },
    {
      "inputs": [
        {
          "internalType": "uint256",
          "name": "tokenId",
          "type": "uint256"
        }
      ],
      "name": "getApproved",
      "outputs": [
        {
          "internalType": "address",
          "name": "",
          "type": "address"
        }
      ],
      "stateMutability": "view",
      "type": "function"
    },
    {
      "inputs": [
        {
          "internalType": "address",
          "name": "owner",
          "type": "address"
        },
        {
          "internalType": "address",
          "name": "operator",
          "type": "address"
        }
      ],
      "name": "isApprovedForAll",
      "outputs": [
        {
          "internalType": "bool",
          "name": "",
          "type": "bool"
        }
      ],
      "stateMutability": "view",
      "type": "function"
    },
    {
      "inputs": [
        {
          "internalType": "address",
          "name": "to",
          "type": "address"
        },
        {
          "internalType": "string",
          "name": "_tokenURI",
          "type": "string"
        }
      ],
      "name": "mintNFT",
      "outputs": [
        {
          "internalType": "uint256",
          "name": "",
          "type": "uint256"
        }
      ],
      "stateMutability": "nonpayable",
      "type": "function"
    },
    {
      "inputs": [],
      "name": "name",
      "outputs": [
        {
          "internalType": "string",
          "name": "",
          "type": "string"
        }
      ],
      "stateMutability": "view",
      "type": "function"
    },
    {
      "inputs": [],
      "name": "owner",
      "outputs": [
        {
          "internalType": "address",
          "name": "",
          "type": "address"
        }
      ],
      "stateMutability": "view",
      "type": "function"
    },
    {
      "inputs": [
        {
          "internalType": "uint256",
          "name": "tokenId",
          "type": "uint256"
        }
      ],
      "name": "ownerOf",
      "outputs": [
        {
          "internalType": "address",
          "name": "",
          "type": "address"
        }
      ],
      "stateMutability": "view",
      "type": "function"
    },
    {
      "inputs": [],
      "name": "renounceOwnership",
      "outputs": [],
      "stateMutability": "nonpayable",
      "type": "function"
    },
    {
      "inputs": [
        {
          "internalType": "address",
          "name": "from",
          "type": "address"
        },
        {
          "internalType": "address",
          "name": "to",
          "type": "address"
        },
        {
          "internalType": "uint256",
          "name": "tokenId",
          "type": "uint256"
        }
      ],
      "name": "safeTransferFrom",
      "outputs": [],
      "stateMutability": "nonpayable",
      "type": "function"
    },
    {
      "inputs": [
        {
          "internalType": "address",
          "name": "from",
          "type": "address"
        },
        {
          "internalType": "address",
          "name": "to",
          "type": "address"
        },
        {
          "internalType": "uint256",
          "name": "tokenId",
          "type": "uint256"
        },
        {
          "internalType": "bytes",
          "name": "data",
          "type": "bytes"
        }
      ],
      "name": "safeTransferFrom",
      "outputs": [],
      "stateMutability": "nonpayable",
      "type": "function"
    },
    {
      "inputs": [
        {
          "internalType": "address",
          "name": "operator",
          "type": "address"
        },
        {
          "internalType": "bool",
          "name": "approved",
          "type": "bool"
        }
      ],
      "name": "setApprovalForAll",
      "outputs": [],
      "stateMutability": "nonpayable",
      "type": "function"
    },
    {
      "inputs": [
        {
          "internalType": "bytes4",
          "name": "interfaceId",
          "type": "bytes4"
        }
      ],
      "name": "supportsInterface",
      "outputs": [
        {
          "internalType": "bool",
          "name": "",
          "type": "bool"
        }
      ],
      "stateMutability": "view",
      "type": "function"
    },
    {
      "inputs": [],
      "name": "symbol",
      "outputs": [
        {
          "internalType": "string",
          "name": "",
          "type": "string"
        }
      ],
      "stateMutability": "view",
      "type": "function"
    },
    {
      "inputs": [
        {
          "internalType": "uint256",
          "name": "index",
          "type": "uint256"
        }
      ],
      "name": "tokenByIndex",
      "outputs": [
        {
          "internalType": "uint256",
          "name": "",
          "type": "uint256"
        }
      ],
      "stateMutability": "view",
      "type": "function"
    },
    {
      "inputs": [],
      "name": "tokenCounter",
      "outputs": [
        {
          "internalType": "uint256",
          "name": "",
          "type": "uint256"
        }
      ],
      "stateMutability": "view",
      "type": "function"
    },
    {
      "inputs": [
        {
          "internalType": "address",
          "name": "owner",
          "type": "address"
        },
        {
          "internalType": "uint256",
          "name": "index",
          "type": "uint256"
        }
      ],
      "name": "tokenOfOwnerByIndex",
      "outputs": [
        {
          "internalType": "uint256",
          "name": "",
          "type": "uint256"
        }
      ],
      "stateMutability": "view",
      "type": "function"
    },
    {
      "inputs": [
        {
          "internalType": "uint256",
          "name": "tokenId",
          "type": "uint256"
        }
      ],
      "name": "tokenURI",
      "outputs": [
        {
          "internalType": "string",
          "name": "",
          "type": "string"
        }
      ],
      "stateMutability": "view",
      "type": "function"
    },
    {
      "inputs": [],
      "name": "totalSupply",
      "outputs": [
        {
          "internalType": "uint256",
          "name": "",
          "type": "uint256"
        }
      ],
      "stateMutability": "view",
      "type": "function"
    },
    {
      "inputs": [
        {
          "internalType": "address",
          "name": "from",
          "type": "address"
        },
        {
          "internalType": "address",
          "name": "to",
          "type": "address"
        },
        {
          "internalType": "uint256",
          "name": "tokenId",
          "type": "uint256"
        }
      ],
      "name": "transferFrom",
      "outputs": [],
      "stateMutability": "nonpayable",
      "type": "function"
    },
    {
      "inputs": [
        {
          "internalType": "address",
          "name": "newOwner",
          "type": "address"
        }
      ],
      "name": "transferOwnership",
      "outputs": [],
      "stateMutability": "nonpayable",
      "type": "function"
    }
  ],
  "bytecode": "0x60806040523480156200001157600080fd5b506040518060400160405280600881526020017f48656c6c6f4e46540000000000000000000000000000000000000000000000008152506040518060400160405280600481526020017f484e46540000000000000000000000000000000000000000000000000000000081525081600090816200008f91906200041a565b508060019081620000a191906200041a565b505050620000c4620000b8620000d260201b60201c565b620000da60201b60201c565b6000600c8190555062000501565b600033905090565b6000600b60009054906101000a900473ffffffffffffffffffffffffffffffffffffffff16905081600b60006101000a81548173ffffffffffffffffffffffffffffffffffffffff021916908373ffffffffffffffffffffffffffffffffffffffff1602179055508173ffffffffffffffffffffffffffffffffffffffff168173ffffffffffffffffffffffffffffffffffffffff167f8be0079c531659141344cd1fd0a4f28419497f9722a3daafe3b4186f6b6457e060405160405180910390a35050565b600081519050919050565b7f4e487b7100000000000000000000000000000000000000000000000000000000600052604160045260246000fd5b7f4e487b7100000000000000000000000000000000000000000000000000000000600052602260045260246000fd5b600060028204905060018216806200022257607f821691505b602082108103620002385762000237620001da565b5b50919050565b60008190508160005260206000209050919050565b60006020601f8301049050919050565b600082821b905092915050565b600060088302620002a27fffffffffffffffffffffffffffffffffffffffffffffffffffffffffffffffff8262000263565b620002ae868362000263565b95508019841693508086168417925050509392505050565b6000819050919050565b6000819050919050565b6000620002fb620002f5620002ef84620002c6565b620002d0565b620002c6565b9050919050565b6000819050919050565b6200031783620002da565b6200032f620003268262000302565b84845462000270565b825550505050565b600090565b6200034662000337565b620003538184846200030c565b505050565b5b818110156200037b576200036f6000826200033c565b60018101905062000359565b5050565b601f821115620003ca5762000394816200023e565b6200039f8462000253565b81016020851015620003af578190505b620003c7620003be8562000253565b83018262000358565b50505b505050565b600082821c905092915050565b6000620003ef60001984600802620003cf565b1980831691505092915050565b60006200040a8383620003dc565b9150826002028217905092915050565b6200042582620001a0565b67ffffffffffffffff811115620004415762000440620001ab565b5b6200044d825462000209565b6200045a8282856200037f565b600060209050601f8311600181146200049257600084156200047d578287015190505b620004898582620003fc565b865550620004f9565b601f198416620004a2866200023e565b60005b82811015620004cc57848901518255600182019150602085019450602081019050620004a5565b86831015620004ec5784890151620004e8601f891682620003dc565b8355505b6001600288020188555050505b505050505050565b61385580620005116000396000f3fe608060405234801561001057600080fd5b50600436106101375760003560e01c806370a08231116100b8578063b88d4fde1161007c578063b88d4fde1461034e578063c87b56dd1461036a578063d082e3811461039a578063e985e9c5146103b8578063eacabe14146103e8578063f2fde38b1461041857610137565b806370a08231146102bc578063715018a6146102ec5780638da5cb5b146102f657806395d89b4114610314578063a22cb4651461033257610137565b806323b872dd116100ff57806323b872dd146101f45780632f745c591461021057806342842e0e146102405780634f6ccce71461025c5780636352211e1461028c57610137565b806301ffc9a71461013c57806306fdde031461016c578063081812fc1461018a578063095ea7b3146101ba57806318160ddd146101d6575b600080fd5b6101566004803603810190610151919061239b565b610434565b60405161016391906123e3565b60405180910390f35b610174610446565b604051610181919061248e565b60405180910390f35b6101a4600480360381019061019f91906124e6565b6104d8565b6040516101b19190612554565b60405180910390f35b6101d460048036038101906101cf919061259b565b61051e565b005b6101de610635565b6040516101eb91906125ea565b60405180910390f35b61020e60048036038101906102099190612605565b610642565b005b61022a6004803603810190610225919061259b565b6106a2565b60405161023791906125ea565b60405180910390f35b61025a60048036038101906102559190612605565b610747565b005b610276600480360381019061027191906124e6565b610767565b60405161028391906125ea565b60405180910390f35b6102a660048036038101906102a191906124e6565b6107d8565b6040516102b39190612554565b60405180910390f35b6102d660048036038101906102d19190612658565b61085e565b6040516102e391906125ea565b60405180910390f35b6102f4610915565b005b6102fe610929565b60405161030b9190612554565b60405180910390f35b61031c610953565b604051610329919061248e565b60405180910390f35b61034c600480360381019061034791906126b1565b6109e5565b005b61036860048036038101906103639190612826565b6109fb565b005b610384600480360381019061037f91906124e6565b610a5d565b604051610391919061248e565b60405180910390f35b6103a2610a6f565b6040516103af91906125ea565b60405180910390f35b6103d260048036038101906103cd91906128a9565b610a75565b6040516103df91906123e3565b60405180910390f35b61040260048036038101906103fd919061298a565b610b09565b60405161040f91906125ea565b60405180910390f35b610432600480360381019061042d9190612658565b610b49565b005b600061043f82610bcc565b9050919050565b60606000805461045590612a15565b80601f016020809104026020016040519081016040528092919081815260200182805461048190612a15565b80156104ce5780601f106104a3576101008083540402835291602001916104ce565b820191906000526020600020905b8154815290600101906020018083116104b157829003601f168201915b5050505050905090565b60006104e382610c2d565b6004600083815260200190815260200160002060009054906101000a900473ffffffffffffffffffffffffffffffffffffffff169050919050565b6000610529826107d8565b90508073ffffffffffffffffffffffffffffffffffffffff168373ffffffffffffffffffffffffffffffffffffffff1603610599576040517f08c379a000000000000000000000000000000000000000000000000000000000815260040161059090612ab8565b60405180910390fd5b8073ffffffffffffffffffffffffffffffffffffffff166105b8610c78565b73ffffffffffffffffffffffffffffffffffffffff1614806105e757506105e6816105e1610c78565b610a75565b5b610626576040517f08c379a000000000000000000000000000000000000000000000000000000000815260040161061d90612b4a565b60405180910390fd5b6106308383610c80565b505050565b6000600880549050905090565b61065361064d610c78565b82610d39565b610692576040517f08c379a000000000000000000000000000000000000000000000000000000000815260040161068990612bdc565b60405180910390fd5b61069d838383610dce565b505050565b60006106ad8361085e565b82106106ee576040517f08c379a00000000000000000000000000000000000000000000000000000000081526004016106e590612c6e565b60405180910390fd5b600660008473ffffffffffffffffffffffffffffffffffffffff1673ffffffffffffffffffffffffffffffffffffffff168152602001908152602001600020600083815260200190815260200160002054905092915050565b610762838383604051806020016040528060008152506109fb565b505050565b6000610771610635565b82106107b2576040517f08c379a00000000000000000000000000000000000000000000000000000000081526004016107a990612d00565b60405180910390fd5b600882815481106107c6576107c5612d20565b5b90600052602060002001549050919050565b6000806107e4836110c7565b9050600073ffffffffffffffffffffffffffffffffffffffff168173ffffffffffffffffffffffffffffffffffffffff1603610855576040517f08c379a000000000000000000000000000000000000000000000000000000000815260040161084c90612d9b565b60405180910390fd5b80915050919050565b60008073ffffffffffffffffffffffffffffffffffffffff168273ffffffffffffffffffffffffffffffffffffffff16036108ce576040517f08c379a00000000000000000000000000000000000000000000000000000000081526004016108c590612e2d565b60405180910390fd5b600360008373ffffffffffffffffffffffffffffffffffffffff1673ffffffffffffffffffffffffffffffffffffffff168152602001908152602001600020549050919050565b61091d611104565b6109276000611182565b565b6000600b60009054906101000a900473ffffffffffffffffffffffffffffffffffffffff16905090565b60606001805461096290612a15565b80601f016020809104026020016040519081016040528092919081815260200182805461098e90612a15565b80156109db5780601f106109b0576101008083540402835291602001916109db565b820191906000526020600020905b8154815290600101906020018083116109be57829003601f168201915b5050505050905090565b6109f76109f0610c78565b8383611248565b5050565b610a0c610a06610c78565b83610d39565b610a4b576040517f08c379a0000000000000000000000000000000000000000000000000000000008152600401610a4290612bdc565b60405180910390fd5b610a57848484846113b4565b50505050565b6060610a6882611410565b9050919050565b600c5481565b6000600560008473ffffffffffffffffffffffffffffffffffffffff1673ffffffffffffffffffffffffffffffffffffffff16815260200190815260200160002060008373ffffffffffffffffffffffffffffffffffffffff1673ffffffffffffffffffffffffffffffffffffffff16815260200190815260200160002060009054906101000a900460ff16905092915050565b600080600c549050610b1b8482611522565b610b258184611540565b6001600c6000828254610b389190612e7c565b925050819055508091505092915050565b610b51611104565b600073ffffffffffffffffffffffffffffffffffffffff168173ffffffffffffffffffffffffffffffffffffffff1603610bc0576040517f08c379a0000000000000000000000000000000000000000000000000000000008152600401610bb790612f22565b60405180910390fd5b610bc981611182565b50565b6000634906490660e01b7bffffffffffffffffffffffffffffffffffffffffffffffffffffffff1916827bffffffffffffffffffffffffffffffffffffffffffffffffffffffff19161480610c265750610c25826115e4565b5b9050919050565b610c368161165e565b610c75576040517f08c379a0000000000000000000000000000000000000000000000000000000008152600401610c6c90612d9b565b60405180910390fd5b50565b600033905090565b816004600083815260200190815260200160002060006101000a81548173ffffffffffffffffffffffffffffffffffffffff021916908373ffffffffffffffffffffffffffffffffffffffff160217905550808273ffffffffffffffffffffffffffffffffffffffff16610cf3836107d8565b73ffffffffffffffffffffffffffffffffffffffff167f8c5be1e5ebec7d5bd14f71427d1e84f3dd0314c0f7b2291e5b200ac8c7c3b92560405160405180910390a45050565b600080610d45836107d8565b90508073ffffffffffffffffffffffffffffffffffffffff168473ffffffffffffffffffffffffffffffffffffffff161480610d875750610d868185610a75565b5b80610dc557508373ffffffffffffffffffffffffffffffffffffffff16610dad846104d8565b73ffffffffffffffffffffffffffffffffffffffff16145b91505092915050565b8273ffffffffffffffffffffffffffffffffffffffff16610dee826107d8565b73ffffffffffffffffffffffffffffffffffffffff1614610e44576040517f08c379a0000000000000000000000000000000000000000000000000000000008152600401610e3b90612fb4565b60405180910390fd5b600073ffffffffffffffffffffffffffffffffffffffff168273ffffffffffffffffffffffffffffffffffffffff1603610eb3576040517f08c379a0000000000000000000000000000000000000000000000000000000008152600401610eaa90613046565b60405180910390fd5b610ec0838383600161169f565b8273ffffffffffffffffffffffffffffffffffffffff16610ee0826107d8565b73ffffffffffffffffffffffffffffffffffffffff1614610f36576040517f08c379a0000000000000000000000000000000000000000000000000000000008152600401610f2d90612fb4565b60405180910390fd5b6004600082815260200190815260200160002060006101000a81549073ffffffffffffffffffffffffffffffffffffffff02191690556001600360008573ffffffffffffffffffffffffffffffffffffffff1673ffffffffffffffffffffffffffffffffffffffff168152602001908152602001600020600082825403925050819055506001600360008473ffffffffffffffffffffffffffffffffffffffff1673ffffffffffffffffffffffffffffffffffffffff16815260200190815260200160002060008282540192505081905550816002600083815260200190815260200160002060006101000a81548173ffffffffffffffffffffffffffffffffffffffff021916908373ffffffffffffffffffffffffffffffffffffffff160217905550808273ffffffffffffffffffffffffffffffffffffffff168473ffffffffffffffffffffffffffffffffffffffff167fddf252ad1be2c89b69c2b068fc378daa952ba7f163c4a11628f55a4df523b3ef60405160405180910390a46110c283838360016116b1565b505050565b60006002600083815260200190815260200160002060009054906101000a900473ffffffffffffffffffffffffffffffffffffffff169050919050565b61110c610c78565b73ffffffffffffffffffffffffffffffffffffffff1661112a610929565b73ffffffffffffffffffffffffffffffffffffffff1614611180576040517f08c379a0000000000000000000000000000000000000000000000000000000008152600401611177906130b2565b60405180910390fd5b565b6000600b60009054906101000a900473ffffffffffffffffffffffffffffffffffffffff16905081600b60006101000a81548173ffffffffffffffffffffffffffffffffffffffff021916908373ffffffffffffffffffffffffffffffffffffffff1602179055508173ffffffffffffffffffffffffffffffffffffffff168173ffffffffffffffffffffffffffffffffffffffff167f8be0079c531659141344cd1fd0a4f28419497f9722a3daafe3b4186f6b6457e060405160405180910390a35050565b8173ffffffffffffffffffffffffffffffffffffffff168373ffffffffffffffffffffffffffffffffffffffff16036112b6576040517f08c379a00000000000000000000000000000000000000000000000000000000081526004016112ad9061311e565b60405180910390fd5b80600560008573ffffffffffffffffffffffffffffffffffffffff1673ffffffffffffffffffffffffffffffffffffffff16815260200190815260200160002060008473ffffffffffffffffffffffffffffffffffffffff1673ffffffffffffffffffffffffffffffffffffffff16815260200190815260200160002060006101000a81548160ff0219169083151502179055508173ffffffffffffffffffffffffffffffffffffffff168373ffffffffffffffffffffffffffffffffffffffff167f17307eab39ab6107e8899845ad3d59bd9653f200f220920489ca2b5937696c31836040516113a791906123e3565b60405180910390a3505050565b6113bf848484610dce565b6113cb848484846116b7565b61140a576040517f08c379a0000000000000000000000000000000000000000000000000000000008152600401611401906131b0565b60405180910390fd5b50505050565b606061141b82610c2d565b6000600a6000848152602001908152602001600020805461143b90612a15565b80601f016020809104026020016040519081016040528092919081815260200182805461146790612a15565b80156114b45780601f10611489576101008083540402835291602001916114b4565b820191906000526020600020905b81548152906001019060200180831161149757829003601f168201915b5050505050905060006114c561183e565b905060008151036114da57819250505061151d565b60008251111561150f5780826040516020016114f792919061320c565b6040516020818303038152906040529250505061151d565b61151884611855565b925050505b919050565b61153c8282604051806020016040528060008152506118bd565b5050565b6115498261165e565b611588576040517f08c379a000000000000000000000000000000000000000000000000000000000815260040161157f906132a2565b60405180910390fd5b80600a600084815260200190815260200160002090816115a8919061346e565b507ff8e1a15aba9398e019f0b49df1a4fde98ee17ae345cb5f6b5e2c27f5033e8ce7826040516115d891906125ea565b60405180910390a15050565b60007f780e9d63000000000000000000000000000000000000000000000000000000007bffffffffffffffffffffffffffffffffffffffffffffffffffffffff1916827bffffffffffffffffffffffffffffffffffffffffffffffffffffffff19161480611657575061165682611918565b5b9050919050565b60008073ffffffffffffffffffffffffffffffffffffffff16611680836110c7565b73ffffffffffffffffffffffffffffffffffffffff1614159050919050565b6116ab848484846119fa565b50505050565b50505050565b60006116d88473ffffffffffffffffffffffffffffffffffffffff16611b58565b15611831578373ffffffffffffffffffffffffffffffffffffffff1663150b7a02611701610c78565b8786866040518563ffffffff1660e01b81526004016117239493929190613595565b6020604051808303816000875af192505050801561175f57506040513d601f19601f8201168201806040525081019061175c91906135f6565b60015b6117e1573d806000811461178f576040519150601f19603f3d011682016040523d82523d6000602084013e611794565b606091505b5060008151036117d9576040517f08c379a00000000000000000000000000000000000000000000000000000000081526004016117d0906131b0565b60405180910390fd5b805181602001fd5b63150b7a0260e01b7bffffffffffffffffffffffffffffffffffffffffffffffffffffffff1916817bffffffffffffffffffffffffffffffffffffffffffffffffffffffff191614915050611836565b600190505b949350505050565b606060405180602001604052806000815250905090565b606061186082610c2d565b600061186a61183e565b9050600081511161188a57604051806020016040528060008152506118b5565b8061189484611b7b565b6040516020016118a592919061320c565b6040516020818303038152906040525b915050919050565b6118c78383611c49565b6118d460008484846116b7565b611913576040517f08c379a000000000000000000000000000000000000000000000000000000000815260040161190a906131b0565b60405180910390fd5b505050565b60007f80ac58cd000000000000000000000000000000000000000000000000000000007bffffffffffffffffffffffffffffffffffffffffffffffffffffffff1916827bffffffffffffffffffffffffffffffffffffffffffffffffffffffff191614806119e357507f5b5e139f000000000000000000000000000000000000000000000000000000007bffffffffffffffffffffffffffffffffffffffffffffffffffffffff1916827bffffffffffffffffffffffffffffffffffffffffffffffffffffffff1916145b806119f357506119f282611e66565b5b9050919050565b611a0684848484611ed0565b6001811115611a4a576040517f08c379a0000000000000000000000000000000000000000000000000000000008152600401611a4190613695565b60405180910390fd5b6000829050600073ffffffffffffffffffffffffffffffffffffffff168573ffffffffffffffffffffffffffffffffffffffff1603611a9157611a8c81611ed6565b611ad0565b8373ffffffffffffffffffffffffffffffffffffffff168573ffffffffffffffffffffffffffffffffffffffff1614611acf57611ace8582611f1f565b5b5b600073ffffffffffffffffffffffffffffffffffffffff168473ffffffffffffffffffffffffffffffffffffffff1603611b1257611b0d8161208c565b611b51565b8473ffffffffffffffffffffffffffffffffffffffff168473ffffffffffffffffffffffffffffffffffffffff1614611b5057611b4f848261215d565b5b5b5050505050565b6000808273ffffffffffffffffffffffffffffffffffffffff163b119050919050565b606060006001611b8a846121dc565b01905060008167ffffffffffffffff811115611ba957611ba86126fb565b5b6040519080825280601f01601f191660200182016040528015611bdb5781602001600182028036833780820191505090505b509050600082602001820190505b600115611c3e578080600190039150507f3031323334353637383961626364656600000000000000000000000000000000600a86061a8153600a8581611c3257611c316136b5565b5b04945060008503611be9575b819350505050919050565b600073ffffffffffffffffffffffffffffffffffffffff168273ffffffffffffffffffffffffffffffffffffffff1603611cb8576040517f08c379a0000000000000000000000000000000000000000000000000000000008152600401611caf90613730565b60405180910390fd5b611cc18161165e565b15611d01576040517f08c379a0000000000000000000000000000000000000000000000000000000008152600401611cf89061379c565b60405180910390fd5b611d0f60008383600161169f565b611d188161165e565b15611d58576040517f08c379a0000000000000000000000000000000000000000000000000000000008152600401611d4f9061379c565b60405180910390fd5b6001600360008473ffffffffffffffffffffffffffffffffffffffff1673ffffffffffffffffffffffffffffffffffffffff16815260200190815260200160002060008282540192505081905550816002600083815260200190815260200160002060006101000a81548173ffffffffffffffffffffffffffffffffffffffff021916908373ffffffffffffffffffffffffffffffffffffffff160217905550808273ffffffffffffffffffffffffffffffffffffffff16600073ffffffffffffffffffffffffffffffffffffffff167fddf252ad1be2c89b69c2b068fc378daa952ba7f163c4a11628f55a4df523b3ef60405160405180910390a4611e626000838360016116b1565b5050565b60007f01ffc9a7000000000000000000000000000000000000000000000000000000007bffffffffffffffffffffffffffffffffffffffffffffffffffffffff1916827bffffffffffffffffffffffffffffffffffffffffffffffffffffffff1916149050919050565b50505050565b6008805490506009600083815260200190815260200160002081905550600881908060018154018082558091505060019003906000526020600020016000909190919091505550565b60006001611f2c8461085e565b611f3691906137bc565b905060006007600084815260200190815260200160002054905081811461201b576000600660008673ffffffffffffffffffffffffffffffffffffffff1673ffffffffffffffffffffffffffffffffffffffff168152602001908152602001600020600084815260200190815260200160002054905080600660008773ffffffffffffffffffffffffffffffffffffffff1673ffffffffffffffffffffffffffffffffffffffff168152602001908152602001600020600084815260200190815260200160002081905550816007600083815260200190815260200160002081905550505b6007600084815260200190815260200160002060009055600660008573ffffffffffffffffffffffffffffffffffffffff1673ffffffffffffffffffffffffffffffffffffffff16815260200190815260200160002060008381526020019081526020016000206000905550505050565b600060016008805490506120a091906137bc565b90506000600960008481526020019081526020016000205490506000600883815481106120d0576120cf612d20565b5b9060005260206000200154905080600883815481106120f2576120f1612d20565b5b906000526020600020018190555081600960008381526020019081526020016000208190555060096000858152602001908152602001600020600090556008805480612141576121406137f0565b5b6001900381819060005260206000200160009055905550505050565b60006121688361085e565b905081600660008573ffffffffffffffffffffffffffffffffffffffff1673ffffffffffffffffffffffffffffffffffffffff168152602001908152602001600020600083815260200190815260200160002081905550806007600084815260200190815260200160002081905550505050565b600080600090507a184f03e93ff9f4daa797ed6e38ed64bf6a1f010000000000000000831061223a577a184f03e93ff9f4daa797ed6e38ed64bf6a1f01000000000000000083816122305761222f6136b5565b5b0492506040810190505b6d04ee2d6d415b85acef81000000008310612277576d04ee2d6d415b85acef8100000000838161226d5761226c6136b5565b5b0492506020810190505b662386f26fc1000083106122a657662386f26fc10000838161229c5761229b6136b5565b5b0492506010810190505b6305f5e10083106122cf576305f5e10083816122c5576122c46136b5565b5b0492506008810190505b61271083106122f45761271083816122ea576122e96136b5565b5b0492506004810190505b60648310612317576064838161230d5761230c6136b5565b5b0492506002810190505b600a8310612326576001810190505b80915050919050565b6000604051905090565b600080fd5b600080fd5b60007fffffffff0000000000000000000000000000000000000000000000000000000082169050919050565b61237881612343565b811461238357600080fd5b50565b6000813590506123958161236f565b92915050565b6000602082840312156123b1576123b0612339565b5b60006123bf84828501612386565b91505092915050565b60008115159050919050565b6123dd816123c8565b82525050565b60006020820190506123f860008301846123d4565b92915050565b600081519050919050565b600082825260208201905092915050565b60005b8381101561243857808201518184015260208101905061241d565b60008484015250505050565b6000601f19601f8301169050919050565b6000612460826123fe565b61246a8185612409565b935061247a81856020860161241a565b61248381612444565b840191505092915050565b600060208201905081810360008301526124a88184612455565b905092915050565b6000819050919050565b6124c3816124b0565b81146124ce57600080fd5b50565b6000813590506124e0816124ba565b92915050565b6000602082840312156124fc576124fb612339565b5b600061250a848285016124d1565b91505092915050565b600073ffffffffffffffffffffffffffffffffffffffff82169050919050565b600061253e82612513565b9050919050565b61254e81612533565b82525050565b60006020820190506125696000830184612545565b92915050565b61257881612533565b811461258357600080fd5b50565b6000813590506125958161256f565b92915050565b600080604083850312156125b2576125b1612339565b5b60006125c085828601612586565b92505060206125d1858286016124d1565b9150509250929050565b6125e4816124b0565b82525050565b60006020820190506125ff60008301846125db565b92915050565b60008060006060848603121561261e5761261d612339565b5b600061262c86828701612586565b935050602061263d86828701612586565b925050604061264e868287016124d1565b9150509250925092565b60006020828403121561266e5761266d612339565b5b600061267c84828501612586565b91505092915050565b61268e816123c8565b811461269957600080fd5b50565b6000813590506126ab81612685565b92915050565b600080604083850312156126c8576126c7612339565b5b60006126d685828601612586565b92505060206126e78582860161269c565b9150509250929050565b600080fd5b600080fd5b7f4e487b7100000000000000000000000000000000000000000000000000000000600052604160045260246000fd5b61273382612444565b810181811067ffffffffffffffff82111715612752576127516126fb565b5b80604052505050565b600061276561232f565b9050612771828261272a565b919050565b600067ffffffffffffffff821115612791576127906126fb565b5b61279a82612444565b9050602081019050919050565b82818337600083830152505050565b60006127c96127c484612776565b61275b565b9050828152602081018484840111156127e5576127e46126f6565b5b6127f08482856127a7565b509392505050565b600082601f83011261280d5761280c6126f1565b5b813561281d8482602086016127b6565b91505092915050565b600080600080608085870312156128405761283f612339565b5b600061284e87828801612586565b945050602061285f87828801612586565b9350506040612870878288016124d1565b925050606085013567ffffffffffffffff8111156128915761289061233e565b5b61289d878288016127f8565b91505092959194509250565b600080604083850312156128c0576128bf612339565b5b60006128ce85828601612586565b92505060206128df85828601612586565b9150509250929050565b600067ffffffffffffffff821115612904576129036126fb565b5b61290d82612444565b9050602081019050919050565b600061292d612928846128e9565b61275b565b905082815260208101848484011115612949576129486126f6565b5b6129548482856127a7565b509392505050565b600082601f830112612971576129706126f1565b5b813561298184826020860161291a565b91505092915050565b600080604083850312156129a1576129a0612339565b5b60006129af85828601612586565b925050602083013567ffffffffffffffff8111156129d0576129cf61233e565b5b6129dc8582860161295c565b9150509250929050565b7f4e487b7100000000000000000000000000000000000000000000000000000000600052602260045260246000fd5b60006002820490506001821680612a2d57607f821691505b602082108103612a4057612a3f6129e6565b5b50919050565b7f4552433732313a20617070726f76616c20746f2063757272656e74206f776e6560008201527f7200000000000000000000000000000000000000000000000000000000000000602082015250565b6000612aa2602183612409565b9150612aad82612a46565b604082019050919050565b60006020820190508181036000830152612ad181612a95565b9050919050565b7f4552433732313a20617070726f76652063616c6c6572206973206e6f7420746f60008201527f6b656e206f776e6572206f7220617070726f76656420666f7220616c6c000000602082015250565b6000612b34603d83612409565b9150612b3f82612ad8565b604082019050919050565b60006020820190508181036000830152612b6381612b27565b9050919050565b7f4552433732313a2063616c6c6572206973206e6f7420746f6b656e206f776e6560008201527f72206f7220617070726f76656400000000000000000000000000000000000000602082015250565b6000612bc6602d83612409565b9150612bd182612b6a565b604082019050919050565b60006020820190508181036000830152612bf581612bb9565b9050919050565b7f455243373231456e756d657261626c653a206f776e657220696e646578206f7560008201527f74206f6620626f756e6473000000000000000000000000000000000000000000602082015250565b6000612c58602b83612409565b9150612c6382612bfc565b604082019050919050565b60006020820190508181036000830152612c8781612c4b565b9050919050565b7f455243373231456e756d657261626c653a20676c6f62616c20696e646578206f60008201527f7574206f6620626f756e64730000000000000000000000000000000000000000602082015250565b6000612cea602c83612409565b9150612cf582612c8e565b604082019050919050565b60006020820190508181036000830152612d1981612cdd565b9050919050565b7f4e487b7100000000000000000000000000000000000000000000000000000000600052603260045260246000fd5b7f4552433732313a20696e76616c696420746f6b656e2049440000000000000000600082015250565b6000612d85601883612409565b9150612d9082612d4f565b602082019050919050565b60006020820190508181036000830152612db481612d78565b9050919050565b7f4552433732313a2061646472657373207a65726f206973206e6f74206120766160008201527f6c6964206f776e65720000000000000000000000000000000000000000000000602082015250565b6000612e17602983612409565b9150612e2282612dbb565b604082019050919050565b60006020820190508181036000830152612e4681612e0a565b9050919050565b7f4e487b7100000000000000000000000000000000000000000000000000000000600052601160045260246000fd5b6000612e87826124b0565b9150612e92836124b0565b9250828201905080821115612eaa57612ea9612e4d565b5b92915050565b7f4f776e61626c653a206e6577206f776e657220697320746865207a65726f206160008201527f6464726573730000000000000000000000000000000000000000000000000000602082015250565b6000612f0c602683612409565b9150612f1782612eb0565b604082019050919050565b60006020820190508181036000830152612f3b81612eff565b9050919050565b7f4552433732313a207472616e736665722066726f6d20696e636f72726563742060008201527f6f776e6572000000000000000000000000000000000000000000000000000000602082015250565b6000612f9e602583612409565b9150612fa982612f42565b604082019050919050565b60006020820190508181036000830152612fcd81612f91565b9050919050565b7f4552433732313a207472616e7366657220746f20746865207a65726f2061646460008201527f7265737300000000000000000000000000000000000000000000000000000000602082015250565b6000613030602483612409565b915061303b82612fd4565b604082019050919050565b6000602082019050818103600083015261305f81613023565b9050919050565b7f4f776e61626c653a2063616c6c6572206973206e6f7420746865206f776e6572600082015250565b600061309c602083612409565b91506130a782613066565b602082019050919050565b600060208201905081810360008301526130cb8161308f565b9050919050565b7f4552433732313a20617070726f766520746f2063616c6c657200000000000000600082015250565b6000613108601983612409565b9150613113826130d2565b602082019050919050565b60006020820190508181036000830152613137816130fb565b9050919050565b7f4552433732313a207472616e7366657220746f206e6f6e20455243373231526560008201527f63656976657220696d706c656d656e7465720000000000000000000000000000602082015250565b600061319a603283612409565b91506131a58261313e565b604082019050919050565b600060208201905081810360008301526131c98161318d565b9050919050565b600081905092915050565b60006131e6826123fe565b6131f081856131d0565b935061320081856020860161241a565b80840191505092915050565b600061321882856131db565b915061322482846131db565b91508190509392505050565b7f45524337323155524953746f726167653a2055524920736574206f66206e6f6e60008201527f6578697374656e7420746f6b656e000000000000000000000000000000000000602082015250565b600061328c602e83612409565b915061329782613230565b604082019050919050565b600060208201905081810360008301526132bb8161327f565b9050919050565b60008190508160005260206000209050919050565b60006020601f8301049050919050565b600082821b905092915050565b6000600883026133247fffffffffffffffffffffffffffffffffffffffffffffffffffffffffffffffff826132e7565b61332e86836132e7565b95508019841693508086168417925050509392505050565b6000819050919050565b600061336b613366613361846124b0565b613346565b6124b0565b9050919050565b6000819050919050565b61338583613350565b61339961339182613372565b8484546132f4565b825550505050565b600090565b6133ae6133a1565b6133b981848461337c565b505050565b5b818110156133dd576133d26000826133a6565b6001810190506133bf565b5050565b601f821115613422576133f3816132c2565b6133fc846132d7565b8101602085101561340b578190505b61341f613417856132d7565b8301826133be565b50505b505050565b600082821c905092915050565b600061344560001984600802613427565b1980831691505092915050565b600061345e8383613434565b9150826002028217905092915050565b613477826123fe565b67ffffffffffffffff8111156134905761348f6126fb565b5b61349a8254612a15565b6134a58282856133e1565b600060209050601f8311600181146134d857600084156134c6578287015190505b6134d08582613452565b865550613538565b601f1984166134e6866132c2565b60005b8281101561350e578489015182556001820191506020850194506020810190506134e9565b8683101561352b5784890151613527601f891682613434565b8355505b6001600288020188555050505b505050505050565b600081519050919050565b600082825260208201905092915050565b600061356782613540565b613571818561354b565b935061358181856020860161241a565b61358a81612444565b840191505092915050565b60006080820190506135aa6000830187612545565b6135b76020830186612545565b6135c460408301856125db565b81810360608301526135d6818461355c565b905095945050505050565b6000815190506135f08161236f565b92915050565b60006020828403121561360c5761360b612339565b5b600061361a848285016135e1565b91505092915050565b7f455243373231456e756d657261626c653a20636f6e736563757469766520747260008201527f616e7366657273206e6f7420737570706f727465640000000000000000000000602082015250565b600061367f603583612409565b915061368a82613623565b604082019050919050565b600060208201905081810360008301526136ae81613672565b9050919050565b7f4e487b7100000000000000000000000000000000000000000000000000000000600052601260045260246000fd5b7f4552433732313a206d696e7420746f20746865207a65726f2061646472657373600082015250565b600061371a602083612409565b9150613725826136e4565b602082019050919050565b600060208201905081810360008301526137498161370d565b9050919050565b7f4552433732313a20746f6b656e20616c7265616479206d696e74656400000000600082015250565b6000613786601c83612409565b915061379182613750565b602082019050919050565b600060208201905081810360008301526137b581613779565b9050919050565b60006137c7826124b0565b91506137d2836124b0565b92508282039050818111156137ea576137e9612e4d565b5b92915050565b7f4e487b7100000000000000000000000000000000000000000000000000000000600052603160045260246000fdfea264697066735822122056fd310fbc85954a11d8363a0302377168f7cb3df3fd05ec446a4474b4b3f77064736f6c63430008110033",
  "linkReferences": {},
  "deployedLinkReferences": {}
}