{
  "_format": "hh-sol-artifact-1",
  "contractName": "Greeter",
  "sourceName": "contracts/Greeter.sol",
  "abi": [
    {
      "inputs": [
        {
          "internalType": "string",
          "name": "_greeting",
          "type": "string"
        },
        {
          "internalType": "address",
          "name": "_token",
          "type": "address"
        }
      ],
      "stateMutability": "nonpayable",
      "type": "constructor"
    },
    {
      "anonymous": false,
      "inputs": [
        {
          "indexed": false,
          "internalType": "string",
          "name": "_greeting",
          "type": "string"
        }
      ],
      "name": "GreetingUpdated",
      "type": "event"
    },
    {
      "inputs": [],
      "name": "greet",
      "outputs": [
        {
          "internalType": "string",
          "name": "",
          "type": "string"
        }
      ],
      "stateMutability": "view",
      "type": "function"
    },
    {
      "inputs": [],
      "name": "owner",
      "outputs": [
        {
          "internalType": "address",
          "name": "",
          "type": "address"
        }
      ],
      "stateMutability": "view",
      "type": "function"
    },
    {
      "inputs": [
        {
          "internalType": "string",
          "name": "_greeting",
          "type": "string"
        }
      ],
      "name": "setGreeting",
      "outputs": [],
      "stateMutability": "nonpayable",
      "type": "function"
    },
    {
      "inputs": [],
      "name": "token",
      "outputs": [
        {
          "internalType": "contract IERC20",
          "name": "",
          "type": "address"
        }
      ],
      "stateMutability": "view",
      "type": "function"
    }
  ],
  "bytecode": "0x60806040523480156200001157600080fd5b50604051620013ad380380620013ad8339818101604052810190620000379190620002cb565b81600090816200004891906200057c565b5033600160006101000a81548173ffffffffffffffffffffffffffffffffffffffff021916908373ffffffffffffffffffffffffffffffffffffffff16021790555080600260006101000a81548173ffffffffffffffffffffffffffffffffffffffff021916908373ffffffffffffffffffffffffffffffffffffffff160217905550505062000663565b6000604051905090565b600080fd5b600080fd5b600080fd5b600080fd5b6000601f19601f8301169050919050565b7f4e487b7100000000000000000000000000000000000000000000000000000000600052604160045260246000fd5b6200013c82620000f1565b810181811067ffffffffffffffff821117156200015e576200015d62000102565b5b80604052505050565b600062000173620000d3565b905062000181828262000131565b919050565b600067ffffffffffffffff821115620001a457620001a362000102565b5b620001af82620000f1565b9050602081019050919050565b60005b83811015620001dc578082015181840152602081019050620001bf565b60008484015250505050565b6000620001ff620001f98462000186565b62000167565b9050828152602081018484840111156200021e576200021d620000ec565b5b6200022b848285620001bc565b509392505050565b600082601f8301126200024b576200024a620000e7565b5b81516200025d848260208601620001e8565b91505092915050565b600073ffffffffffffffffffffffffffffffffffffffff82169050919050565b6000620002938262000266565b9050919050565b620002a58162000286565b8114620002b157600080fd5b50565b600081519050620002c5816200029a565b92915050565b60008060408385031215620002e557620002e4620000dd565b5b600083015167ffffffffffffffff811115620003065762000305620000e2565b5b620003148582860162000233565b92505060206200032785828601620002b4565b9150509250929050565b600081519050919050565b7f4e487b7100000000000000000000000000000000000000000000000000000000600052602260045260246000fd5b600060028204905060018216806200038457607f821691505b6020821081036200039a57620003996200033c565b5b50919050565b60008190508160005260206000209050919050565b60006020601f8301049050919050565b600082821b905092915050565b600060088302620004047fffffffffffffffffffffffffffffffffffffffffffffffffffffffffffffffff82620003c5565b620004108683620003c5565b95508019841693508086168417925050509392505050565b6000819050919050565b6000819050919050565b60006200045d62000457620004518462000428565b62000432565b62000428565b9050919050565b6000819050919050565b62000479836200043c565b62000491620004888262000464565b848454620003d2565b825550505050565b600090565b620004a862000499565b620004b58184846200046e565b505050565b5b81811015620004dd57620004d16000826200049e565b600181019050620004bb565b5050565b601f8211156200052c57620004f681620003a0565b6200050184620003b5565b8101602085101562000511578190505b620005296200052085620003b5565b830182620004ba565b50505b505050565b600082821c905092915050565b6000620005516000198460080262000531565b1980831691505092915050565b60006200056c83836200053e565b9150826002028217905092915050565b620005878262000331565b67ffffffffffffffff811115620005a357620005a262000102565b5b620005af82546200036b565b620005bc828285620004e1565b600060209050601f831160018114620005f45760008415620005df578287015190505b620005eb85826200055e565b8655506200065b565b601f1984166200060486620003a0565b60005b828110156200062e5784890151825560018201915060208501945060208101905062000607565b868310156200064e57848901516200064a601f8916826200053e565b8355505b6001600288020188555050505b505050505050565b610d3a80620006736000396000f3fe608060405234801561001057600080fd5b506004361061004c5760003560e01c80638da5cb5b14610051578063a41368621461006f578063cfae32171461008b578063fc0c546a146100a9575b600080fd5b6100596100c7565b60405161006691906103e1565b60405180910390f35b61008960048036038101906100849190610556565b6100ed565b005b6100936102e8565b6040516100a0919061061e565b60405180910390f35b6100b161037a565b6040516100be919061069f565b60405180910390f35b600160009054906101000a900473ffffffffffffffffffffffffffffffffffffffff1681565b6000600260009054906101000a900473ffffffffffffffffffffffffffffffffffffffff1673ffffffffffffffffffffffffffffffffffffffff1663313ce5676040518163ffffffff1660e01b8152600401602060405180830381865afa15801561015c573d6000803e3d6000fd5b505050506040513d601f19601f8201168201806040525081019061018091906106f3565b600a61018c919061088c565b600a61019891906108d7565b9050600260009054906101000a900473ffffffffffffffffffffffffffffffffffffffff1673ffffffffffffffffffffffffffffffffffffffff166323b872dd33600160009054906101000a900473ffffffffffffffffffffffffffffffffffffffff16846040518463ffffffff1660e01b815260040161021b93929190610928565b6020604051808303816000875af115801561023a573d6000803e3d6000fd5b505050506040513d601f19601f8201168201806040525081019061025e9190610997565b61029d576040517f08c379a000000000000000000000000000000000000000000000000000000000815260040161029490610a10565b60405180910390fd5b81600090816102ac9190610c32565b507f751929b70872b28ade86117c978600b8960752da51e1d7da2f9a89d0f52f5ae4826040516102dc919061061e565b60405180910390a15050565b6060600080546102f790610a5f565b80601f016020809104026020016040519081016040528092919081815260200182805461032390610a5f565b80156103705780601f1061034557610100808354040283529160200191610370565b820191906000526020600020905b81548152906001019060200180831161035357829003601f168201915b5050505050905090565b600260009054906101000a900473ffffffffffffffffffffffffffffffffffffffff1681565b600073ffffffffffffffffffffffffffffffffffffffff82169050919050565b60006103cb826103a0565b9050919050565b6103db816103c0565b82525050565b60006020820190506103f660008301846103d2565b92915050565b6000604051905090565b600080fd5b600080fd5b600080fd5b600080fd5b6000601f19601f8301169050919050565b7f4e487b7100000000000000000000000000000000000000000000000000000000600052604160045260246000fd5b6104638261041a565b810181811067ffffffffffffffff821117156104825761048161042b565b5b80604052505050565b60006104956103fc565b90506104a1828261045a565b919050565b600067ffffffffffffffff8211156104c1576104c061042b565b5b6104ca8261041a565b9050602081019050919050565b82818337600083830152505050565b60006104f96104f4846104a6565b61048b565b90508281526020810184848401111561051557610514610415565b5b6105208482856104d7565b509392505050565b600082601f83011261053d5761053c610410565b5b813561054d8482602086016104e6565b91505092915050565b60006020828403121561056c5761056b610406565b5b600082013567ffffffffffffffff81111561058a5761058961040b565b5b61059684828501610528565b91505092915050565b600081519050919050565b600082825260208201905092915050565b60005b838110156105d95780820151818401526020810190506105be565b60008484015250505050565b60006105f08261059f565b6105fa81856105aa565b935061060a8185602086016105bb565b6106138161041a565b840191505092915050565b6000602082019050818103600083015261063881846105e5565b905092915050565b6000819050919050565b600061066561066061065b846103a0565b610640565b6103a0565b9050919050565b60006106778261064a565b9050919050565b60006106898261066c565b9050919050565b6106998161067e565b82525050565b60006020820190506106b46000830184610690565b92915050565b600060ff82169050919050565b6106d0816106ba565b81146106db57600080fd5b50565b6000815190506106ed816106c7565b92915050565b60006020828403121561070957610708610406565b5b6000610717848285016106de565b91505092915050565b7f4e487b7100000000000000000000000000000000000000000000000000000000600052601160045260246000fd5b60008160011c9050919050565b6000808291508390505b60018511156107a65780860481111561078257610781610720565b5b60018516156107915780820291505b808102905061079f8561074f565b9450610766565b94509492505050565b6000826107bf576001905061087b565b816107cd576000905061087b565b81600181146107e357600281146107ed5761081c565b600191505061087b565b60ff8411156107ff576107fe610720565b5b8360020a91508482111561081657610815610720565b5b5061087b565b5060208310610133831016604e8410600b84101617156108515782820a90508381111561084c5761084b610720565b5b61087b565b61085e848484600161075c565b9250905081840481111561087557610874610720565b5b81810290505b9392505050565b6000819050919050565b600061089782610882565b91506108a2836106ba565b92506108cf7fffffffffffffffffffffffffffffffffffffffffffffffffffffffffffffffff84846107af565b905092915050565b60006108e282610882565b91506108ed83610882565b92508282026108fb81610882565b9150828204841483151761091257610911610720565b5b5092915050565b61092281610882565b82525050565b600060608201905061093d60008301866103d2565b61094a60208301856103d2565b6109576040830184610919565b949350505050565b60008115159050919050565b6109748161095f565b811461097f57600080fd5b50565b6000815190506109918161096b565b92915050565b6000602082840312156109ad576109ac610406565b5b60006109bb84828501610982565b91505092915050565b7f5061796d656e74206661696c6564000000000000000000000000000000000000600082015250565b60006109fa600e836105aa565b9150610a05826109c4565b602082019050919050565b60006020820190508181036000830152610a29816109ed565b9050919050565b7f4e487b7100000000000000000000000000000000000000000000000000000000600052602260045260246000fd5b60006002820490506001821680610a7757607f821691505b602082108103610a8a57610a89610a30565b5b50919050565b60008190508160005260206000209050919050565b60006020601f8301049050919050565b600082821b905092915050565b600060088302610af27fffffffffffffffffffffffffffffffffffffffffffffffffffffffffffffffff82610ab5565b610afc8683610ab5565b95508019841693508086168417925050509392505050565b6000610b2f610b2a610b2584610882565b610640565b610882565b9050919050565b6000819050919050565b610b4983610b14565b610b5d610b5582610b36565b848454610ac2565b825550505050565b600090565b610b72610b65565b610b7d818484610b40565b505050565b5b81811015610ba157610b96600082610b6a565b600181019050610b83565b5050565b601f821115610be657610bb781610a90565b610bc084610aa5565b81016020851015610bcf578190505b610be3610bdb85610aa5565b830182610b82565b50505b505050565b600082821c905092915050565b6000610c0960001984600802610beb565b1980831691505092915050565b6000610c228383610bf8565b9150826002028217905092915050565b610c3b8261059f565b67ffffffffffffffff811115610c5457610c5361042b565b5b610c5e8254610a5f565b610c69828285610ba5565b600060209050601f831160018114610c9c5760008415610c8a578287015190505b610c948582610c16565b865550610cfc565b601f198416610caa86610a90565b60005b82811015610cd257848901518255600182019150602085019450602081019050610cad565b86831015610cef5784890151610ceb601f891682610bf8565b8355505b6001600288020188555050505b50505050505056fea264697066735822122057433f4a91bee18a62b8be463c4f899ab0a6e994e9f113a64fa8bd55c3cffb1964736f6c63430008110033",
  "linkReferences": {},
  "deployedLinkReferences": {}
}